:100000000C94B3030C94DB030C94DB030C94DB0320
:100010000C94DB030C94DB030C94DB030C94DB03E8
:100020000C94DB030C94DB030C94DB030C9451075E
:100030000C94DB030C94DB030C94DB030C94DB03C8
:100040000C940B120C94DB030C94DB030C94DB0379
:100050000C94DB030C94DB030C94DB030C94DB03A8
:100060000C9455120C94DB03A008A308A608A90859
:10007000AC08BD08BA08C008E916D516C116AD16F9
:100080009916851671165D16651678168B169E16CE
:10009000B116C416D716EA164916351621160D16CE
:1000A000FD161117251739176C1680169416A81609
:1000B000BC16D016E416F8161A163F1664168916E2
:1000C000AE16D316F8161D17204F464600204F4E89
:1000D0002000457869742020202020202020202026
:1000E0002020005465737420416C61726D202020C3
:1000F0002020200052657365742053657474696E06
:10010000677320200053637265656E2053617665C6
:1001100072202020200053686F772053746172741E
:1001200073637265656E0042617474657279204113
:100130006C61726D202020004C69506F2033732059
:100140004D65746572202020004C69506F20327319
:10015000204D6574657220202000466C6970205324
:10016000637265656E20202020200013122011216B
:10017000100722081806091905230A1A040B1B0385
:10018000240C1C020D1D25010E1E000F1F26141528
:100190002716172000202000200020002020436880
:1001A000616E6E656C202020205253534900204D13
:1001B000487A0000000000240027002A0000000008
:1001C00000250028002B004D6F64206279205342E7
:1001D000500076312E352062792044766F676F6E3D
:1001E000656E004359434C4F502B00352E36352059
:1001F00020202020352E382020202020352E393573
:100200000020204368616E6E656C202020205253D0
:10021000534900204D487A005343414E00000000EE
:1002200000003E5B4F5B3E3E6B4F6B3E1C3E7C3E98
:100230001C183C7E3C181C577D571C1C5E7F5E1CA6
:1002400000183C1800FFE7C3E7FF0018241800FF60
:10025000E7DBE7FF30483A060E2629792926407F5A
:10026000050507407F05253F5A3CE73C5A7F3E1C69
:100270001C08081C1C3E7F14227F22145F5F005F55
:100280005F06097F017F006689956A606060606033
:1002900094A2FFA29408047E040810207E20100877
:1002A000082A1C08081C2A08081E101010100C1E12
:1002B0000C1E0C30383E3830060E3E0E0600000094
:1002C000000000005F00000007000700147F147F9B
:1002D00014242A7F2A1223130864623649562050B8
:1002E0000008070300001C2241000041221C002AD4
:1002F0001C7F1C2A08083E0808008070300008088F
:10030000080808000060600020100804023E5149FF
:10031000453E00427F400072494949462141494DCE
:10032000331814127F1027454545393C4A49493155
:1003300041211109073649494936464949291E00D4
:10034000001400000040340000000814224114147E
:10035000141414004122140802015909063E415D9B
:10036000594E7C1211127C7F494949363E41414128
:10037000227F4141413E7F494949417F09090901A5
:100380003E414151737F0808087F00417F410020B2
:1003900040413F017F081422417F404040407F029E
:1003A0001C027F7F0408107F3E4141413E7F0909C6
:1003B00009063E4151215E7F0919294626494949CE
:1003C0003203017F01033F4040403F1F2040201F78
:1003D0003F4038403F63140814630304780403610A
:1003E00059494D43007F414141020408102000411A
:1003F00041417F04020102044040404040000307A5
:10040000080020545478407F2844443838444444F9
:1004100028384444287F385454541800087E090270
:1004200018A4A49C787F0804047800447D40002030
:1004300040403D007F1028440000417F40007C0484
:100440007804787C080404783844444438FC182440
:10045000241818242418FC7C080404084854545414
:100460002404043F44243C4040207C1C2040201CA9
:100470003C4030403C44281028444C9090907C44B0
:1004800064544C44000836410000007700000041ED
:1004900036080002010204023C2623263C1EA1A1CC
:1004A00061123A4040207A385454555921555579B3
:1004B0004122545478422155547840205455794073
:1004C0000C1E5272123955555559395454545939D4
:1004D000555454580000457C410002457D420001BE
:1004E000457C407D1211127DF0282528F07C545562
:1004F00045002054547C547C0A097F4932494949BB
:10050000323A4444443A324A4848303A4141217AE6
:100510003A42402078009DA0A07D3D4242423D3DB0
:100520004040403D3C24FF2424487E4943662B2F15
:10053000FC2F2BFF0929F620C0887E090320545484
:1005400079410000447D413048484A3238404022D9
:100550007A007A0A0A727D0D19317D2629292F2801
:10056000262929292630484D40203808080808083F
:10057000080808382F10C8ACBA2F102834FA000029
:100580007B000008142A142222142A14085500554E
:100590000055AA55AA55AAFF55FF55FF000000FFB8
:1005A00000101010FF00141414FF001010FF00FFC3
:1005B0001010F010F0141414FC001414F700FF00D5
:1005C00000FF00FF1414F404FC141417101F101083
:1005D0001F101F1414141F00101010F00000000052
:1005E0001F101010101F10101010F010000000FF4E
:1005F000101010101010101010FF10000000FF1449
:100600000000FF00FF00001F10170000FC04F4149E
:10061000141710171414F404F40000FF00F7141456
:100620001414141414F700F7141414171410101FD2
:10063000101F141414F4141010F010F000001F1008
:100640001F0000001F14000000FC140000F010F058
:100650001010FF10FF141414FF141010101F0000CE
:100660000000F010FFFFFFFFFFF0F0F0F0F0FFFFE1
:10067000FF0000000000FFFF0F0F0F0F0F38444472
:100680003844FC4A4A4A347E02020606027E027E52
:100690000263554941633844443C04407E201E2097
:1006A00006027E020299A5E7A5991C2A492A1C4C3C
:1006B0007201724C304A4D4D303048784830BC623F
:1006C0005A463D3E494949007E0101017E2A2A2AB7
:1006D0002A2A44445F444440514A444040444A51D9
:1006E000400000FF0103E080FF000008086B6B087A
:1006F0003612362436060F090F06000018180000BF
:10070000001010003040FF0101001F01011E001900
:100710001D1712003C3C3C3C0000000000000000A3
:100720000023002600290004040404040404040235
:10073000020202020203030303030301020408107E
:10074000204080010204081020010204081020004B
:100750000000080002010000030407000000000080
:10076000000000009E1C11241FBECFEFD8E0DEBFAA
:10077000CDBF26E0A8E8B5E001C01D92A13BB207BD
:10078000E1F715E0A0E0B1E0EAE7FFE302C0059081
:100790000D92A838B107D9F713E0C3EBD3E004C03A
:1007A0002197FE010E94381DC23BD107C9F70E9464
:1007B00040160C94BB1F0C9400000F931F93CF9313
:1007C000DF93DC0155968C915597823071F0833020
:1007D00009F1813009F08CC01496ED91FC911597C8
:1007E000E41BF50BE21BF30B20C01496ED91FC917A
:1007F0001597CF01861B970BBC01615071091696A6
:10080000ED91FC911797CF01841B950BAC01421B16
:10081000530B6EC01696ED91FC911797CF01861B76
:10082000970BBC0161507109FA0177FD1BC1169647
:100830008D919C911797681779070CF013C1F7FFFA
:1008400004C02E0F3F1FE0E0F0E014968D919C91C4
:100850001597AF01420F531F841795071CF49C0195
:100860002E1B3F0B121613060CF0FCC0CB0177FDBC
:10087000079643E0959587954A95E1F79695982FC9
:10088000882797958795E80FF91FEE5FFE4F6770F1
:10089000772781E090E001C0880F6A95EAF7482F3A
:1008A0000130110541F088F00230110509F0DAC07D
:1008B0002E0F3F1F15C02E0F3F1FE217F30709F43D
:1008C000D1C08081842B8193F8CF80952E0F3F1F5C
:1008D000E217F30709F4C6C0908198239193F8CFEB
:1008E000E217F30709F4BEC0808184278193F8CF13
:1008F00077FDB8C014968D919C911597681779076C
:100900000CF0B0C057FF04C0240F351F40E050E08A
:1009100016968D919C911797FA01E20FF31F8E178F
:100920009F071CF49C01241B350B121613060CF0B8
:1009300099C0A22F842F86958695869590E8899FE9
:10094000600D711D1124FB01EE5FFE4F4770A9F190
:1009500098E0941B492F50E0EA01C25FDA4F88818A
:10096000291790F4421B51092FEF30E002C0359552
:1009700027954A95E2F782230130110541F068F08E
:100980000230110589F06EC00130110519F4208183
:10099000822B0CC00130110520F480952081822328
:1009A00005C00230110531F4208182278083A91708
:1009B00008F458C0A91BE058FF4FA83048F1023096
:1009C000110559F4EF018A2F988190959883C058AA
:1009D000DF4F88508830C0F730C081E0013011050A
:1009E00009F080E08195EF019A2F8883C058DF4F8E
:1009F00098509830D0F788EF8A0F8695869586951F
:100A000090E8899FE00DF11D1124E058FF4FA77079
:100A1000AA2341F1B0E0AA5FBA4F8C9101301105D1
:100A200029F038F002301105D1F01CC09081892BDB
:100A300018C080959081892314C088EF8A0F86950D
:100A40008695869590E8899FE00DF11D1124E05868
:100A5000FF4FA77039F0B0E0AA5FBA4F8C91908138
:100A600089278083DF91CF911F910F9108950F9374
:100A70001F93CF93DF93DC01FB0155968C91559723
:100A8000823081F0833019F1813051F514968D91C7
:100A90009C911597BC01641B750BAB01415051092A
:100AA000BF0181C014966D917C911597CB018E1B6F
:100AB0009F0BFC0116968D919C911797BC01641BAE
:100AC000750BAB0141505109E21BF30B09C016969F
:100AD0006D917C9117976E1B7F0B621B730B63C02C
:100AE00057FD1CC116968D919C9117974817590771
:100AF0000CF014C1F7FF04C02E0F3F1FE0E0F0E040
:100B000014968D919C911597BF01620F731F8617E4
:100B100097071CF49C012E1B3F0B121613060CF0BA
:100B2000FDC0CA0157FD079663E0959587956A95C4
:100B3000E1F79695982F882797958795E80FF91FE5
:100B4000EE5FFE4F4770552781E090E001C0880FAF
:100B50004A95EAF7482F0130110541F088F002303C
:100B6000110509F0DBC02E0F3F1F15C02E0F3F1FD0
:100B7000E217F30709F4D2C08081842B8193F8CF68
:100B800080952E0F3F1FE217F30709F4C7C090812D
:100B900098239193F8CFE217F30709F4BFC080813F
:100BA00084278193F8CF57FDB9C014968D919C91FD
:100BB0001597481759070CF0B1C077FF04C0260FEE
:100BC000371F60E070E016968D919C911797FB019E
:100BD000E20FF31F8E179F071CF49C01261B370B97
:100BE000121613060CF09AC0A22F862F86958695B2
:100BF000869590E8899F400D511D1124FA01EE5F02
:100C0000FE4F6770A9F198E0961B492F50E0EA016A
:100C1000C25FDA4F8881291790F4421B51092FEFE8
:100C200030E002C0359527954A95E2F782230130DE
:100C3000110541F068F00230110589F06FC00130F4
:100C4000110519F42081822B0CC00130110520F40C
:100C500080952081822305C00230110531F4208166
:100C600082278083A91708F459C0A91BE058FF4FB9
:100C7000A83048F10230110559F4EF018A2F98810C
:100C800090959883C058DF4F88508830C0F731C0A6
:100C900081E00130110509F080E08195EF019A2F84
:100CA0008883C058DF4F98509830D0F788EF8A0F6C
:100CB00086958695869560E8869FE00DF11D112446
:100CC000E058FF4FA770AA2349F1B0E0AA5FBA4FDE
:100CD0008C910130110529F038F002301105D9F05E
:100CE0001DC09081892B03C08095908189238083CA
:100CF00015C088EF8A0F86958695869570E8879F40
:100D0000E00DF11D1124E058FF4FA77039F0B0E05D
:100D1000AA5FBA4F8C9190818927E9CFDF91CF915B
:100D20001F910F910895FC0177FD9AC080859185F0
:100D3000681779070CF094C057FD92C0828593859F
:100D4000481759070CF08CC08589823009F07CC0A7
:100D500084819581DC01A61BB70BBD01615071092F
:100D600086819781FC01E41BF50BAF0141505109CD
:100D70000AC0813041F484819581841B950BAB01BD
:100D8000BC01615071092130310529F008F1223090
:100D90003105E1F10895FA0157FD3796A3E0F59585
:100DA000E795AA95E1F7F695FE2FEE27F795E795DB
:100DB0006E0F7F1FFB01EE5FFE4F4770552781E0EE
:100DC00090E001C0880F4A95EAF79081892B3AC0DC
:100DD000FA0157FD379623E0F595E7952A95E1F757
:100DE000F695FE2FEE27F795E7956E0F7F1FFB0117
:100DF000EE5FFE4F4770552781E090E001C0880FFD
:100E00004A95EAF78095908189231CC0FA0157FD25
:100E1000379683E0F595E7958A95E1F7F695FE2FED
:100E2000EE27F795E7956E0F7F1FFB01EE5FFE4FF4
:100E30004770552781E090E001C0880F4A95EAF796
:100E40009081892780830895833009F092CF86812D
:100E50009781861B970BBA01AC014150510993CF82
:100E6000089560E082E00E94591160E084E00E94F1
:100E7000591161E082E00E94591160E082E00C9417
:100E8000591160E082E00E94591161E084E00E9403
:100E9000591161E082E00E94591160E082E00C94F7
:100EA00059111F920F920FB60F9211242F933F9357
:100EB0004F935F936F937F938F939F93AF93BF9362
:100EC000EF93FF938091890587FF05C010928500FD
:100ED000109284001BC020918905022E000C330B58
:100EE00080917E0690E02817390784F48091890567
:100EF000082E000C990BFC01EE0FFF1F8E0F9F1F99
:100F0000FC01E65AF94F808186FD15C08091890564
:100F10008F5F8093890520918905022E000C330B89
:100F200080917E0690E028173907C4F480918905E6
:100F30008C3064F113C080918905082E000C990B48
:100F4000FC01EE0FFF1F8E0F9F1FFC01E65AF94FA9
:100F5000808160E08F730E945911D8CF8091840006
:100F600090918500049680329E4418F480E29EE4BD
:100F700005C080918400909185000496909389002B
:100F8000809388008FEF809389053BC02091840077
:100F90003091850080918905082E000C990BFC0189
:100FA000EE0FFF1F8E0F9F1FFC01E65AF94F818144
:100FB0009281820F931F9093890080938800809183
:100FC0008905082E000C990BFC01EE0FFF1F8E0FF8
:100FD0009F1FFC01E65AF94F808186FF12C0809165
:100FE0008905082E000C990BFC01EE0FFF1F8E0FD8
:100FF0009F1FFC01E65AF94F808161E08F730E94C8
:101000005911FF91EF91BF91AF919F918F917F9176
:101010006F915F914F913F912F910F900FBE0F9065
:101020001F9018958091970590919805803223E044
:10103000920731F08C3D954031F488E998E005C085
:101040008CED95E002C080E293E090939805809348
:101050009705409197055091980520917F062C3077
:1010600070F53091800688E890E0831B910937FD88
:101070009395880F991F880F991F4817590784F077
:101080003091810688E592E0831B910937FD9395A5
:10109000880F991F880F991F481759070CF4CA0128
:1010A0004FB7F89430E00297F901EE0FFF1F2E0FB3
:1010B0003F1FF901E65AF94F928381834FBF08958C
:1010C000FF920F931F93CF93DF93F82E0E949C14EF
:1010D00010928F0610928E06109291061092900632
:1010E00081E080939606FF2019F0CFEFCF0D01C06D
:1010F000C8E0D7E001E010E0C93008F0C0E0CF114F
:1011000009C01092930610929206109395060093D0
:10111000940608C0109393060093920610929506C9
:10112000109294064C2F50E0FA013197E830F10507
:1011300020F4EC5CFF4F0C94381D8AE591E00EC062
:1011400089E491E00BC088E391E008C087E291E078
:1011500005C086E191E002C085E091E00E94DE15C5
:10116000EC2FF0E0E057FA4F8081882391F08DEC6E
:1011700090E011C084EF90E005C083EE90E002C0E3
:1011800082ED90E00E94DE1581E495E00E94CC158E
:1011900004C088EC90E00E94DE158EE395E00E948A
:1011A000CC15CF5FD15009F0A7CFDF91CF911F9120
:1011B0000F91FF900C94F0140F931F93CF93DF9334
:1011C000C62FDEE0D80F8091880526E330E0281B8B
:1011D000310990910001692F70E000E010E040E0DB
:1011E00050E082E896E00E94DD036D2F70E001E0A0
:1011F00010E026E330E040E050E082E896E00E9414
:10120000DD03D0930001C63320F085E38093880589
:1012100002C0C0938805DF91CF911F910F910C946C
:10122000F0141F93CF93DF938F5D91409C0136950F
:1012300027952F71EC0156E0D695C7955A95E1F7A1
:10124000D695DC2FCC27D795C795C22B61E083E0DC
:101250000E94591160E083E00E9459110E944107E9
:101260000E9431070E9431070E9431070E94410706
:1012700010E1C0FF03C00E94410702C00E94310775
:10128000D695C7951150A9F70E9431070E943107E2
:101290000E9431070E94310761E083E00E945911EA
:1012A00060E083E00E94591160E082E00E945911E1
:1012B00060E084E0DF91CF911F910C94591192EF7F
:1012C000980F8E3008F0892F8770982F906480E2F5
:1012D00040E050E090937C0020917A0020642093BD
:1012E0007A0020917A0026FDFCCF20917800609151
:1012F000790030E0362B420F531F815059F7CA0155
:1013000025E0969587952A95E1F70895CF92DF928B
:10131000EF92FF920F931F93CF93DF9390919205DB
:1013200080919105911103C0882309F4E7C08823B7
:1013300029F0C2E8D1E00BE411E004C0C4E4D2E03B
:1013400001EF11E08FE00E945F098C179D0708F004
:101350004AC00817190718F5BC01601B710B80E023
:1013600090E00E94DF1D6B017C01CE01801B910B80
:10137000BC0180E090E00E94DF1D9B01AC01C70131
:10138000B6010E943E1D20E030E048EC52E40E948D
:101390006D1E0E94B01DC62F653010F00AC0C0E05F
:1013A00082E390E090938F0580938E0588EC90E027
:1013B0000AC06F3068F484E690E090938F058093C4
:1013C0008E0588EE93E090938D0580938C0514C074
:1013D000693150F488EC90E090938F0580938E05EE
:1013E00088EB9BE0F0CFC3E610928F0510928E053C
:1013F00010928D0510928C05EE24E394F12C02E0FE
:1014000010E024E030E040E250E06DE370E082E87C
:1014100096E00E94351004E110E02AE030E042E25C
:1014200050E06AE370E082E896E00E943510E12C1B
:10143000F12C00E110E026E030E044E250E06CE303
:1014400070E082E896E00E943510C63580F0EE2408
:10145000E394F12C02E010E024E030E045E250E0BB
:101460006DE370E082E896E00E94351002C0C2345D
:1014700080F0EE24E394F12C02E010E024E030E070
:1014800048E250E06DE370E082E896E00E9435109B
:1014900002C0CE3280F0EE24E394F12C02E010E0A2
:1014A00024E030E04BE250E06DE370E082E896E04B
:1014B0000E94351002C0CA3180F0EE24E394F12C72
:1014C00002E010E024E030E04EE250E06DE370E036
:1014D00082E896E00E94351002C0C63078F0EE2413
:1014E000E394F12C02E010E024E030E041E350E02E
:1014F0006DE370E082E896E00E943510DF91CF91B5
:101500001F910F91FF90EF90DF90CF9008950F9370
:101510001F93CF93DF936091960580E090E00E9447
:101520004A1F00E915E0C0E0D0E0F80161918F01A9
:101530002196CE010E944A1FC630D105B1F76EEE4A
:1015400087E090E0DF91CF911F910F910C944A1F9B
:10155000E0E9F5E081E080831182828383838483E4
:1015600015820895E82FF0E0E559FE4FE491F0E090
:10157000EE0FFF1FE858FF4F859194910895CF9289
:10158000DF92EF92FF920F931F93CF93DF93CDB72C
:10159000DEB766970FB6F894DEBF0FBECDBF082F3B
:1015A0006B010E949C1481E090E0909395068093DB
:1015B000940690939306809392068091970590915C
:1015C00098058032934009F0C7C08AE090E090937C
:1015D0008F0680938E06109291061092900683E0FB
:1015E00080939606802F0E94B20ABC0180E090E0B2
:1015F0004AE00E94FF158BE490E090938F06809361
:101600008E0687E090E0909391068093900612E01A
:10161000109396068EEA91E00E94DE1510928F06D6
:1016200010928E068BE190E0909391068093900645
:1016300081E0809396068CE991E00E94DE1510927D
:101640008F0610928E0687E290E090939106809329
:101650009006109396068AE991E00E94DE1588E9CB
:1016600091E00E94DE1510E005591E4FF8018491AB
:10167000883010F491E40DC0803110F492E409C078
:10168000883110F495E405C0803210F496E401C06E
:1016900092E5998387708F5C8A831B82CE010196C5
:1016A0007C010E94CC1585E991E00E94DE15B6010F
:1016B00080E090E04AE00E94FF1510928F061092A1
:1016C0008E0689E390E0909391068093900681E0E6
:1016D00080939606F8010491083018F466E475E0EA
:1016E00011C0003118F46FE475E00CC0083118F433
:1016F00068E575E007C0003218F465E675E002C0E1
:101700006FE675E0C7010E94DF1EF701019000201F
:10171000E9F73197EE19FF09FF27D701AE0FBF1F79
:1017200007700F5C0C93EC0FFD1F1282F701019004
:101730000020E9F7C7018E1B9F0B4696969587956B
:10174000182F112331F083E991E00E94DE1511502A
:10175000F8CFC7010E94CC1580919705909198050C
:101760008C3D954089F48AE090E090938F068093B9
:101770008E06109291061092900683E08093960652
:1017800089E795E00E94CC15809197059091980586
:101790008839984089F48AE090E090938F0680938E
:1017A0008E06109291061092900683E08093960622
:1017B00080E895E00E94CC15EE24E394F12C08E13A
:1017C00010E02FE730E048E150E060E070E082E8B0
:1017D00096E00E9484100E9486090E94F01466968A
:1017E0000FB6F894DEBF0FBECDBFDF91CF911F9132
:1017F0000F91FF90EF90DF90CF900895EF92FF92BE
:101800000F931F93CF93DF938C01C0E0D0E08CE265
:10181000E82EFF24F3948C2F0E94B20A801B910BB8
:101820001816190634F48C2F0E94B20A801B910BF3
:1018300007C08C2F0E94B20A9801281B390BC901DE
:101840008E159F0514F4DC2F7C01CF5FC83219F789
:101850008D2FDF91CF911F910F91FF90EF90089501
:10186000CF92DF92EF92FF920F931F93CF93DF936C
:101870006C017A018B01C0E0D0E0CE15DF0589F064
:10188000D8016D918D01D601ED91FC910190F0810F
:10189000E02DC6010995892B11F47E0102C0219625
:1018A000ECCFC701DF91CF911F910F91FF90EF9087
:1018B000DF90CF9008953FB7F8948091FF05909105
:1018C0000006A0910106B091020626B5A89B05C0AE
:1018D0002F3F19F00196A11DB11D3FBFBA2FA92FAF
:1018E000982F8827820F911DA11DB11DBC01CD012C
:1018F00043E0660F771F881F991F4A95D1F7089517
:1019000085ED8093BC008091BC0084FDFCCF1092DB
:10191000290608954091D505262F30E0240F311D6A
:1019200021323105DCF4209129062430C9F4FC0170
:1019300080E090E0861758F43091D5052191DC01C4
:10194000AD54BA4FA30FB11D2C930196F3CF8091E4
:10195000D505680F6093D50580E0089581E008956E
:1019600082E00895089581E090E030918B05209108
:101970008A05321710F480E090E0919581959109E5
:10198000089580918B0590918A05891730F48F5FB7
:1019900080938B0580E090E008958FEF9FEF08958E
:1019A00080918A0590E020918B05821B9109089512
:1019B000CF92DF92EF92FF920F931F93CF93DF931B
:1019C0007C01262F972F8A0180912A06882391F087
:1019D000C62FD72F6E01C40ED51ECC15DD0571F0B4
:1019E0006991D701ED91FC910190F081E02DC70143
:1019F0000995F3CF642F822F0E948A0CC801DF91D2
:101A0000CF911F910F91FF90EF90DF90CF900895AD
:101A1000CF93DF931F92CDB7DEB7698320912A065B
:101A20002223D1F020914C06203240F021E030E01A
:101A3000FC013383228380E090E015C080912B0667
:101A4000E82FF0E0E45DF94F998190838F5F8093F8
:101A50002B0680934C0605C061E0CE0101960E94E2
:101A60008A0C81E090E00F90DF91CF910895089566
:101A70002F923F924F925F926F927F928F929F929E
:101A8000AF92BF92CF92DF92EF92FF920F931F938C
:101A9000CF93DF93CDB7DEB76B970FB6F894DEBF69
:101AA0000FBECDBF4C015A8349831F830E83FD8235
:101AB000EC82CB82DC0158964D915C91599741158F
:101AC000510509F0A5C018968D919C91199768173A
:101AD00079070CF05AC11A968D919C911B97E98158
:101AE000FA81E817F9070CF050C1D12CCB013B81EA
:101AF000F6E03F9F800D911D1124181619060CF079
:101B000044C1C60133E0880F991F3A95E1F7498136
:101B10005A81840F951F181619060CF036C1579676
:101B20008C91811103C0203B08F02F5F55E0259F69
:101B3000900111247E876D875B01212CC901861BD2
:101B4000970B99878887A981BA811896BB87AA873E
:101B5000B5E02B1641F0E885F985EA0DFB1DE35E43
:101B6000FD4F349001C0312C69807A80230130FE12
:101B700012C0D401ED91FC91BB81B13031F40480ED
:101B8000F581E02D2E813F8118C00684F785E02D78
:101B9000EE80FF801CC0EC81FD812E813F81E21729
:101BA000F307E1F0D401ED91FC91BB81B13051F428
:101BB0000480F581E02D2C813D81A301B501C40194
:101BC00009950CC00684F785E02DEC80FD80860128
:101BD0009601A2016D857E85C40109953694EFEFCB
:101BE0006E1A7E0A4C0C5D1C2A853B8562167306B4
:101BF00009F0BDCF23943FEFA31AB30A4D855E854C
:101C00004C0D5D1D5E874D8756E02512A1CFBDC0EE
:101C1000FA0134963491329785919491231BA7E071
:101C20002A9F800D911D1124FA01259134913A8B40
:101C3000298BFC0125903490FC0132963491388731
:101C4000319644914C873196E491FC013596A491EC
:101C5000319684915B81523050F06A2E0A2E000C2E
:101C60007708E82F082E000CFF0BFB87EA87FB8123
:101C7000CF2ED12C6C9C90016D9C300D7C9C300D36
:101C80001124A901460F571F588B4F871C82A12C86
:101C9000EA2FAA0FFF0B3B016E0E7F1E5885650FC2
:101CA000711DDB01AE0FBF1FBF8BAE8BE981FA81C7
:101CB000E80FF11D87FDFA95F98FE88F9C85A9162D
:101CC00008F063C08A2D90E04A855B85480F591F54
:101CD0004C9D90014D9D300D5C9D300D1124A981CE
:101CE000BA81A20FB31FBE87AD877B8E6A8E4F84E9
:101CF0005888BC81B619BB8BE88DF98DE80FF91FA8
:101D0000FD8BEC8B8B89FA8D8F0F2A8D3B8D4E8945
:101D10005F892417350799F1877041F4C101019655
:101D2000E989FA89E20DF31DB4901C01B7FE1EC0CB
:101D3000D401ED91FC91BB81B13061F40480F58157
:101D4000E02D2E813F814C895D896A8D7B8DC40198
:101D500009950CC00684F785E02DEE80FF80860192
:101D600096014D855E85B201C4010995BB0CEA8DD3
:101D7000FB8D3196FB8FEA8F4C0C5D1CC3CF5C81D1
:101D80008885580F5C83A39499CF6B960FB6F8940F
:101D9000DEBF0FBECDBFDF91CF911F910F91FF909E
:101DA000EF90DF90CF90BF90AF909F908F907F90FB
:101DB0006F905F904F903F902F900895AF92BF9299
:101DC000CF92EF92FF920F931F93CF93DF93EC018B
:101DD000262F888D998D009709F042C06A3069F4EA
:101DE0002C898E859F8538E0239F800D911D1124BD
:101DF0009F878E871D861C86ACC06D3009F4A9C0F4
:101E00008E898823C1F03C898C859D8546E0349F6E
:101E1000800D911D112448855985841795075CF024
:101E20001D861C868E859F85E8E03E9F800D911D56
:101E300011249F878E87EA88FB88088919894E8537
:101E40005F856C857D85CC88CE010E94380D2C89FC
:101E50008C859D85F6E02F9F800D911D112441C03A
:101E60006A3079F41D861C862C89FC013696E49133
:101E70008E859F852E9F800D911D11249F878E87B3
:101E800068C06D3009F465C0AC014C5F5F4FFA016A
:101E90003491631708F45DC03196E491E61708F4B5
:101EA00058C0FA014491362F341BFC013296A5909C
:101EB000B490F7E03F9FA00CB11C1124F5013296BD
:101EC00034913196E491332311F0E1110DC0F50105
:101ED0003496E4912C898C859D85E29F800D911D1F
:101EE00011249D878C8735C0F501359644915E8914
:101EF000552311F16C89E32FF0E0E40FF11D47FD4C
:101F0000FA956E9FD0016F9FB00D11244C855D85B1
:101F10004A0F5B1FE885F9854E175F076CF01D8639
:101F20001C86FC013696E4918E859F856E9F800D00
:101F3000911D11249F878E87EA88FB88088919895B
:101F40004E855F856C857D85CC88CE010E94380DDD
:101F5000BECF81E090E0DF91CF911F910F91FF9074
:101F6000EF90CF90BF90AF900895EF92FF920F93B4
:101F70001F93DC01ED91FC9111971A960D911C9124
:101F80001B9718962D913C9119970684F785E02DA3
:101F90007B0140E050E060E070E009951F910F91F7
:101FA000FF90EF9008956F927F928F929F92AF92E1
:101FB000BF92CF92DF92EF92FF920F931F93CF9336
:101FC000DF936C015A014801EB013B01620E731E65
:101FD000C615D70574F4D601ED91FC910084F18506
:101FE000E02D87019401A501BE01C6010995219646
:101FF000EFCFDF91CF911F910F91FF90EF90DF9086
:10200000CF90BF90AF909F908F907F906F900895EA
:10201000EF92FF920F931F93DC01ED91FC91260F3D
:10202000371F215031090680F781E02D78018A01A0
:1020300009951F910F91FF90EF900895EF92FF92F5
:102040000F931F937801DC01ED91FC91240F351F54
:102050008901015011090680F781E02D9B01099546
:102060001F910F91FF90EF9008956F927F928F9242
:102070009F92AF92BF92CF92DF92EF92FF920F9317
:102080001F93CF93DF93EC014B015A016901380193
:10209000E881F9810284F385E02D87010995E881C3
:1020A000F981A501460D571D415051090284F38560
:1020B000E02D9601B401CE010995E881F9810084F3
:1020C000F185E02D9301A501B401CE010995E881C8
:1020D000F981C80CD91CB601615071090084F185E1
:1020E000E02D9301A501CE010995DF91CF911F91BC
:1020F0000F91FF90EF90DF90CF90BF90AF909F90A7
:102100008F907F906F9008952F923F924F925F92A1
:102110006F927F928F929F92AF92BF92CF92DF92F7
:10212000EF92FF920F931F93CF93DF9300D01F92F4
:10213000CDB7DEB74C017B836A836A015901170171
:102140009801241B350B37FF03C0319521953109C8
:10215000C5014A815B81841B950B97FF03C0919554
:102160008195910951E059838217930714F01982E0
:102170000BC09A2D8B2D5801092F182F9A818B8116
:10218000DB82CA82C92ED82E8A819B81A816B90605
:102190005CF49C2D8D2D6801092F182F9A818B815D
:1021A000BB82AA82A92EB82E2501AA81BB814A1A18
:1021B0005B0A38016C187D0877FE03C07194619446
:1021C0007108720157FE03C0BFEFEB1AFB0AF594CA
:1021D000E794C016D1061CF00FEF1FEF1FC001E0FF
:1021E00010E01CC0D401ED91FC91B9810480F5810F
:1021F000E02D9101BB23C1F04A815B81B601C4018E
:102200000995E618F708F7FE04C0C00ED11EE40CCD
:10221000F51CEA81FB813196FB83EA834A815B816D
:10222000A416B506FCF604C0A6016A817B81E7CF3F
:102230000F900F900F90DF91CF911F910F91FF9012
:10224000EF90DF90CF90BF90AF909F908F907F9056
:102250006F905F904F903F902F9008950E94DA1EEC
:10226000833081F028F4813099F08230A1F0089514
:102270008730A9F08830B9F08430D1F480918000A3
:102280008F7D03C0809180008F77809380000895B8
:1022900084B58F7702C084B58F7D84BD0895809109
:1022A000B0008F7703C08091B0008F7D8093B00025
:1022B00008951F93CF93DF93282F30E0F901E15B5E
:1022C000F84F8491F901E55CF84FD491F901E95D8B
:1022D000F84FC491CC23C9F0162F81110E94301100
:1022E000EC2FF0E0EE0FFF1FE354FE4FA591B491E9
:1022F0008FB7F894111105C09C91ED2FE095E9235B
:1023000002C0EC91ED2BEC938FBFDF91CF911F9129
:102310000895CF93DF9390E0FC01E55CF84F2491A2
:10232000FC01E95DF84F8491882361F190E0880F0A
:10233000991FFC01ED54FE4FC591D491FC01E3546B
:10234000FE4FA591B491611109C09FB7F89488819F
:10235000209582238883EC912E230BC0623061F498
:102360009FB7F8943881822F809583238883EC91DE
:102370002E2B2C939FBF06C08FB7F894E8812E2B8D
:1023800028838FBFDF91CF9108958F929F92AF9254
:10239000BF92CF92DF92EF92FF926B017C010E947D
:1023A0005B0C4B015C01C114D104E104F104F1F0B8
:1023B0000E945B0CDC01CB0188199909AA09BB09B1
:1023C000883E9340A105B10570F321E0C21AD108FF
:1023D000E108F10888EE880E83E0981EA11CB11C6C
:1023E000C114D104E104F10419F7DDCFFF90EF909F
:1023F000DF90CF90BF90AF909F908F9008952FB7B0
:10240000F8946091FB057091FC058091FD05909119
:10241000FE052FBF08951F920F920FB60F92112441
:102420002F933F938F939F93AF93BF938091FB051F
:102430009091FC05A091FD05B091FE053091FA0543
:1024400026E0230F2D3720F40296A11DB11D05C0F3
:1024500029E8230F0396A11DB11D2093FA0580934F
:10246000FB059093FC05A093FD05B093FE058091BC
:10247000FF0590910006A0910106B0910206019619
:10248000A11DB11D8093FF0590930006A093010646
:10249000B0930206BF91AF919F918F913F912F9181
:1024A0000F900FBE0F901F9018951F920F920FB6AE
:1024B0000F9211242F933F934F935F936F937F93CA
:1024C0008F939F93AF93BF93EF93FF938091B90046
:1024D000887F803609F49CC068F5883209F45BC0B7
:1024E00090F4803109F454C038F4882309F4F6C01C
:1024F000883009F44DC0F6C0883109F44CC08032F0
:1025000009F45DC0EFC0803409F468C048F480333A
:1025100009F455C0883309F0E5C080932706D8C078
:10252000803509F44FC0883509F45DC0883409F05E
:10253000D9C0D6C0883909F4C7C0A8F4883709F4CF
:1025400067C038F4883609F463C0803709F460C086
:10255000C9C0883809F4B8C0803909F45FC0803830
:1025600009F0C0C05BC0803B09F486C038F4803AF3
:1025700009F466C0883A09F47FC0B4C0803C09F40D
:10258000A7C0883C09F4A4C0883B09F48AC0AAC04B
:102590008091040610C09091260680912506981718
:1025A00070F5E091260681E08E0F80932606F0E01C
:1025B000EB5FF94F80818093BB0085EC86C08093F0
:1025C00027068EC0E091260681E08E0F80932606B6
:1025D0008091BB00F0E0EB5FF94F8083909126067D
:1025E000809125066EC0E091260681E08E0F8093D3
:1025F00026068091BB00F0E0EB5FF94F808380916D
:10260000280681116DC081E08093030684EA61C0D1
:1026100083E0809329061092F905CFCF8091F905C8
:10262000803208F051C0E091F90581E08E0F80936F
:10263000F9058091BB00F0E0E752FA4F8083BDCFEF
:1026400085EC8093BC00109229068091F9058032B8
:1026500030F4E091F905F0E0E752FA4F1082609112
:10266000F90570E0E091D705F091D80589ED95E086
:1026700009951092F90536C084E0809329061092DE
:10268000D6051092D505E091D305F091D4050995B2
:102690008091D505811105C081E08093D505109208
:1026A000B305E091D60581E08E0F8093D605F0E06A
:1026B000ED54FA4F80818093BB009091D6058091B4
:1026C000D505981708F479CF85E88093BC000AC037
:1026D00085EC8093BC001092290604C01092270656
:1026E0000E94800CFF91EF91BF91AF919F918F91CC
:1026F0007F916F915F914F913F912F910F900FBEFE
:102700000F901F90189520914C069091B0062132A1
:1027100008F04AC0809129068111FCCF32E0309345
:10272000290631E0309328063FEF309327061092B8
:10273000260620932506ACE2B6E045E056E0FA0115
:102740003E2F341B321718F43D913193F9CF10927C
:10275000040620910406990F922B90930406909101
:102760000306913061F41092030690910406909351
:10277000BB009091BC0093FDF8CF95EC01C095EEA5
:102780009093BC00909129069230E1F39091270636
:102790009F3F79F080912706803241F08091270693
:1027A000803331F084E005C081E003C082E001C0E5
:1027B00083E010922B0610924C0610922A06089580
:1027C0009091A306992339F08EBD00000DB407FE49
:1027D000FDCF8EB5089528E030E040E8E091A606F0
:1027E000F091A70650819091AD0690959523908326
:1027F000E091A406F091A5069091AC06542F5823C1
:1028000019F05081952B03C05081909595239083AA
:10281000E091A606F091A70650819091AD06952B08
:102820009083469521503109C9F60895CF93DF93DF
:10283000E4E5F7E08491E0E4F7E0D491ECE2F7E03E
:10284000C491CC2391F081110E943011EC2FF0E063
:10285000EE0FFF1FE35EF84FA591B491EC91ED23CD
:1028600081E090E021F480E002C080E090E0DF9120
:10287000CF9108950F931F93CF930E941614019741
:1028800009F446C080914D0681113AC000E010E085
:102890000E941614892B49F40F5F1F4F65E070E00A
:1028A00080E090E00E94C511F3CFC80180559109E6
:1028B0008C3D910530F0C1E00837110518F0C0E0FB
:1028C00001C0C3E0C8018C5291408C3B924028F07B
:1028D000083E134018F0C6E001C0C4E000E010E07C
:1028E0000E9416140197B1F40F5F1F4F09321105B2
:1028F000C1F065E070E080E090E00E94C511F0CF8B
:1029000010924D060E941614892BE1F385E010C049
:1029100080E00EC00832110521F00E941614892BA8
:1029200011F08C2F05C00E941614892BE1F382E070
:10293000CF911F910F91089580E094E0E2E0F1E0E3
:10294000DF019C011D9221503040E1F70895CF93A3
:10295000C82F80919E068F3F59F1E091A806F09113
:10296000A90680819091AE06982B9083E091AA06EB
:10297000F091AB0620819091AF06909592239083C1
:10298000E091A806F091A90620819091AE0690955D
:10299000922390838C2F0E94E013E091A806F0917F
:1029A000A90690818091AE06892B8083CF910895EE
:1029B00080919C0691E090932A068093B006109235
:1029C0002B0610924C0660E08EE496E00E94080D03
:1029D0006C2F8EE496E00E94080DCF910C94831327
:1029E000EF92FF920F931F93CF93DF9381E20E94A8
:1029F000A71480E00E94A7148FE70E94A71482E228
:102A00000E94A71480E00E94A71487E00E94A714E8
:102A100080919E068F3F79F1E091A806F091A9067A
:102A200090818091AE06892B8083E091AA06F09177
:102A3000AB0690818091AF06892B8083E091A80638
:102A4000F091A90690818091AE06809589238083BC
:102A5000C2E0D1E089910E94E01385E0C230D8073E
:102A6000C9F7E091A806F091A90690818091AE0681
:102A7000892B808330C0F090B8008CE08093B80040
:102A8000C2E0D1E0EE24E39480919C06E0922A0615
:102A90008093B00610922B0610924C0660E48EE4F0
:102AA00096E00E94080D00E010E0FE01E00FF11F2B
:102AB00060818EE496E00E94080D0F5F1F4F003189
:102AC000110599F70E948313609685E0C230D807FC
:102AD000D9F6F092B800DF91CF911F910F91FF903E
:102AE000EF900895CF93DF93EC0161E086E00E94C0
:102AF0008911209711F460E004C0CF3FD10531F473
:102B000061E086E0DF91CF910C945911E5E5F7E0A3
:102B1000E491E330F9F048F4E130B9F0E230A1F5A6
:102B200084B5806284BDC8BD34C0E730E9F0E830C8
:102B300019F1E43049F58091800080628093800033
:102B4000D0938B00C0938A0024C084B5806884BD74
:102B5000C7BD1FC080918000806880938000D093A3
:102B60008900C093880015C08091B0008068809370
:102B7000B000C093B3000DC08091B000806280931C
:102B8000B000C093B40005C0C038D1050CF0B8CF78
:102B9000B2CFDF91CF910895009769F0FC010190C9
:102BA0000020E9F73197AF01481B590BBC0182E8BF
:102BB00096E00C94300C80E090E008950F931F9302
:102BC000CF93DF938C01C0E0D0E0F801EC0FFD1F44
:102BD0006491662371F0E0918206F0918306019082
:102BE000F081E02D82E896E00995892B11F021967D
:102BF000ECCFCE01DF91CF911F910F9108958F926D
:102C00009F92AF92BF920F931F93CF93DF93CDB755
:102C1000DEB7A1970FB6F894DEBF0FBECDBF19A2E5
:102C2000423008F44AE08E010F5D1F4F842E912C34
:102C3000A12CB12CA50194010E948A1FE62FB90195
:102C4000CA0101501109EA3014F4E05D01C0E95CE9
:102C5000D801EC93232B242B252B61F7C8010E946C
:102C6000CC15A1960FB6F894DEBF0FBECDBFDF9195
:102C7000CF911F910F91BF90AF909F908F9008952B
:102C8000CF93DF931F92CDB7DEB7789484B582607F
:102C900084BD84B5816084BD85B5826085BD85B500
:102CA000816085BD80916E00816080936E0010927E
:102CB00081008091810082608093810080918100F9
:102CC000816080938100809180008160809380008A
:102CD0008091B10084608093B1008091B0008160E8
:102CE0008093B00080917A00846080937A00809114
:102CF0007A00826080937A0080917A008E7F809340
:102D00007A0080917A00806880937A001092C100E6
:102D100061E08DE00E94891161E08DE00E9459110F
:102D200060E085E00E94891162E085E00E9459110F
:102D300061E086E00E94891161E083E00E948911D0
:102D400061E084E00E94891161E082E00E948911C3
:102D500087E090E00E94421F8E3E09F0B4C580E0FB
:102D600090E00E94421F8093960500E915E0EE2452
:102D7000E394F12CC7010E94421FF80181938F0157
:102D8000FFEFEF1AFF0A27E0E216F10499F78091AE
:102D900096050E94B20A0E94110982E080939D0666
:102DA0008CE380939C0680919E068F3F09F4BDC002
:102DB00061E08091A0060E94891161E08091A206E5
:102DC0000E9489118091A206082E000C990BFC012B
:102DD000E95DF84FE491F0E0EE0FFF1FE354FE4F82
:102DE000259134913093A9062093A806FC01E55C57
:102DF000F84FE491E093AE068091A006082E000CF7
:102E0000990BFC01E95DF84FE491F0E0EE0FFF1F34
:102E1000E354FE4F259134913093AB062093AA06DC
:102E2000FC01E55CF84FE491E093AF068091A306C6
:102E300081113EC061E080919E060E94891161E08F
:102E400080919F060E94891180919F06082E000C98
:102E5000990BFC01E95DF84FE491F0E0EE0FFF1FE4
:102E6000E354FE4F259134913093A7062093A60694
:102E7000FC01E55CF84FE491E093AD0680919E067D
:102E8000082E000C990BFC01E95DF84FE491F0E08D
:102E9000EE0FFF1FE354FE4F259134913093A506AA
:102EA0002093A406FC01E55CF84FE491E093AC06A6
:102EB0008091A306882309F45FC01FB7F89480911E
:102EC0009905811127C0E1E3F7E08491E5E4F7E09B
:102ED0009491E82FF0E0EE0FFF1FED54FE4FA59107
:102EE000B491EC91E92321F461E08AE00E94591148
:102EF00061E08AE00E9489118CB580618CBD8CB53F
:102F000080648CBD61E08DE00E94891161E08BE0FE
:102F10000E948911809199058F5F809399051FBF49
:102F200080E58CBD81E08DBD27C010928B0510928D
:102F30008A0510922B0610924C061092290681E009
:102F4000809328061092030661E082E10E945911E5
:102F500061E083E10E9459118091B9008E7F8093D6
:102F6000B9008091B9008D7F8093B90080E2809391
:102F7000B80085E48093BC008091A10687FD1EC047
:102F800061E00E94891161E08091A1060E945911BF
:102F900061E070E080E090E00E94C51160E0809107
:102FA000A1060E9459116AE070E080E090E00E9462
:102FB000C51161E08091A1060E9459118EEA0E941C
:102FC000A71485ED0E94A71480E80E94A71488EA40
:102FD0000E94A7148FE30E94A71483ED0E94A714F8
:102FE00080E00E94A71480E40E94A7148DE80E944C
:102FF000A71484E10E94A71480E20E94A71480E035
:103000000E94A71481EA0E94A71488EC0E94A714CA
:103010008AED0E94A71482E10E94A71481E80E9411
:10302000A7148FEC0E94A71489ED0E94A71481EFCA
:103030000E94A7148BED0E94A71480E40E94A7149D
:1030400084EA0E94A71486EA0E94A7148EE20E94D6
:10305000A7148FEA0E94A7140E949C1480919005E7
:10306000882399F082E0809397068091860690915C
:10307000870690938B0680938A06809188069091AC
:10308000890690938D0680938C060E94F0140E940E
:103090001614892B09F095C080E00E9460080E94F8
:1030A0003A1410E0812F0E9460080E943A14823086
:1030B00059F018F4813021F0F5CF853050F0F2CF7F
:1030C0001F5F193070F7EECF112309F435C411508A
:1030D000E9CF183009F45CC0173019F40E94A80A2F
:1030E000E1CF163009F04AC003E080E290E00E9490
:1030F000721568EC70E080E090E00E94C51180E0FD
:1031000090E00E94721568EB7BE080E090E00E9406
:10311000C511015051F703E080E290E00E94721562
:1031200064E670E080E090E00E94C51180E090E0ED
:103130000E94721568EE73E080E090E00E94C51175
:10314000015051F703E080E290E00E94721562E3C3
:1031500070E080E090E00E94C51180E090E00E9465
:10316000721568EC70E080E090E00E94C51101509B
:1031700051F780E090E00E94721594CFE12FF0E0CB
:10318000E057FA4F81E09081911180E080838ACFEF
:103190000E94870A80919005882399F082E08093AD
:1031A0009706809186069091870690938B06809370
:1031B0008A06809188069091890690938D06809367
:1031C0008C0680917F068C3008F051C061E087E06A
:1031D0000E94891180917F06E82FF0E09F01220F65
:1031E000331FE20FF31FE65AF94F9081907C9760EE
:1031F000908310928006109281066CE00E94181D48
:103200009CE0899FB001112440E050E09A01260F14
:10321000371FF901EE0FFF1F2E0F3F1FF901E65A6E
:10322000F94F908196FD16C04F5F5F4F4C305105AE
:1032300069F781110FC01092800082E080938100B5
:103240001092850010928400B19A80916F00826084
:1032500080936F00E0917F06F0E0CF01880F991F07
:10326000E80FF91FE65AF94F8081806480830E943D
:10327000120880919405882309F4A2C00E949C142E
:10328000EE24E394F12C00E010E02FE730E040E082
:1032900050E060E070E082E896E00E94841081E0F7
:1032A00090E0909395068093940690939306809374
:1032B000920690938F0680938E0684E090E0909320
:1032C00091068093900683E08093960683EE91E0CA
:1032D0000E94DE150BE110E02FE730E04BE150E0FB
:1032E00060E070E082E896E00E9484108FE090E059
:1032F00090938F0680938E0683E290E090939106E0
:103300008093900681E08093960682ED91E00E9482
:10331000DE1581E290E090938F0680938E0682E323
:1033200090E0909391068093900687EC91E00E9444
:10333000DE150E94F01418EC0E941614892B09F473
:103340003FC06AE070E080E090E00E94C51111503B
:1033500099F7EFE17E2EF0E8CF2ED12CE12CF12C65
:10336000A0E48A2E912CA12CB12C7A94772021F103
:103370000E941614892B21F10BEF10E00150110966
:10338000C1F00E94341FA70196010E94581F662EAB
:103390000E94341FA50194010E94581F462F50E03F
:1033A000662D70E020E030E082E896E00E9493060F
:1033B000E5CF0E94F014D9CF0E949C140E94F01413
:1033C0000E94FF11DC01CB01805F984DAF4FBF4FD2
:1033D0008093AA059093AB05A093AC05B093AD057F
:1033E00049E3242E47E1342ECC24C394D12C6AE047
:1033F000A62EB12C7BE4872E912C8091970590917D
:1034000098058032934009F069C10E943A14809374
:10341000B205833009F498C038F4813009F442C110
:10342000823009F448C179C1843021F0863009F432
:103430005DC173C1809196050E94B20A3C010E9451
:103440009C14EE24E394F12C07E310E02FE730E026
:1034500047E350E060E070E082E896E00E9484106C
:10346000D0929506C0929406D0929306C09292068E
:1034700081E08093960610928F0610928E0689E363
:1034800090E090939106809390068BEE91E00E94DD
:10349000DE1560E080E00E94DC08230114E60E9453
:1034A0003A1481112EC093E0490E511CEAE34E16E6
:1034B000E7E15E0620F02DE0422E26E1522EC20109
:1034C0000E94110969E170E080E090E00E94C5115E
:1034D00084E10E945F098C5891096AE070E00E94C3
:1034E000241D262FC1018419950963E070E00E9414
:1034F000241D862F622FF12FF81B8F2F0E94DC08CE
:10350000CECF82010451110924E1420E511CE12C5D
:10351000F12CC8010E94110969E170E080E090E09F
:103520000E94C51184E10E945F09E816F90610F4B3
:1035300038017C010E5F1F4F0415150551F7C301BB
:103540000E941109C301A7C089830E949C14D092D4
:103550009506C0929406D0929306C0929206B092BD
:103560008F06A0928E061092910610929006898185
:103570008093960688E192E00E94DE1590928F0675
:1035800080928E0687E090E090939106809390065B
:1035900082E08093960683E192E00E94DE15EE249D
:1035A000E394F12C08E110E02FE730E048E150E02F
:1035B00060E070E082E896E00E94841010928F062E
:1035C00010928E06EBE1F0E0F0939106E093900606
:1035D00081E08093960681E092E00E94DE150E94D1
:1035E00086090E94F014809196050E94B20A2C016F
:1035F000FAE04F0E511C40FC04C02C012BE0420E9F
:10360000511C82018CE3782EE12CF12C053387E1EB
:10361000180718F40B5F1F4F02C00DE016E1C80138
:103620000E94110969E170E080E090E00E94C511FC
:1036300084E10E945F09E816F90610F428017C0174
:103640007A9471100AC0820104511109320194E187
:10365000690E711CE12CF12C04C08A3F9105B0F277
:10366000F2CFC8010E94110969E170E080E090E0AA
:103670000E94C51184E10E945F09E816F90610F462
:1036800028017C010E5F1F4F0615170551F7C20177
:103690000E941109C2010E94FE0B8093960560E012
:1036A00070E02AC080919605873218F411E0180F57
:1036B00008C010E006C0109196051150173208F0AE
:1036C00017E210939605812F0E94B20A0E941109F9
:1036D00060E070E0812F0E94BF0A1FC00E943A1470
:1036E0008093B2058823C9F08530B9F00E94120892
:1036F00060E070E0809196050E94BF0A0E94FF1171
:10370000DC01CB014996A11DB11D8093AE059093BC
:10371000AF05A093B005B093B1058091B2058823A1
:1037200081F00E94FF11DC01CB01805F984DAF4F0B
:10373000BF4F8093AA059093AB05A093AC05B093BF
:10374000AD050E94FF110091AE051091AF052091CB
:10375000B0053091B1050617170728073907E0F4BF
:1037600080919505882309F4B3C04090AA05509034
:10377000AB056090AC057090AD050E94FF11461638
:1037800057066806790608F0A3C00E949C140E94A0
:10379000F01481E080934D06909196058091A705E5
:1037A000981781F00E94FF110091A3051091A405C4
:1037B0002091A5053091A605061717072807390798
:1037C00008F4A3C00E94FF1100919F051091A0056D
:1037D0002091A1053091A205061717072807390780
:1037E000B8F481E090910101911180E08093010192
:1037F0000E94FF11DC01CB018C509E4FAF4FBF4F99
:1038000080939F059093A005A093A105B093A20576
:10381000609101018DE00E945911809193058823E8
:1038200009F446C0E0908E05F0908F05E114F10494
:1038300009F43EC00E94FF1100919B0510919C0568
:1038400020919D0530919E05061717072807390717
:1038500098F581E090919A05911180E080939A0506
:10386000882369F080E290E00E9472150E94FF11A7
:10387000DC01CB018E0D9F1DA11DB11D10C080E08C
:1038800090E00E9472150E94FF1120918C053091EA
:103890008D05DC01CB01820F931FA11DB11D80930B
:1038A0009B0590939C05A0939D05B0939E0504C035
:1038B00080E090E00E947215E0E0F0E0309709F4BB
:1038C0009CCD09959ACD109296050E94A80A5FCAD0
:1038D00084E10E945F099093A9058093A805BC012B
:1038E000809196050E94BF0A0E94FF11DC01CB0166
:1038F00088519C4FAF4FBF4F8093AE059093AF055B
:10390000A093B005B093B10547CF0E94870A80917C
:1039100096058093A7050E94FF11DC01CB01805F13
:10392000984DAF4FBF4F8093A3059093A405A093EC
:10393000A505B093A60546CF18E0B4CB109251066A
:103940001092500688EE93E0A0E0B0E0809352061B
:1039500090935306A0935406B09355068AE195E0E0
:1039600090934F0680934E0610928506109284061F
:1039700020E830E0309387062093860680E490E0CC
:10398000909389068093880630938B0620938A064D
:1039900090938D0680938C061092970610928F0656
:1039A00010928E06109291061092900681E08093FC
:1039B00096062FEF3FEF30939506209394063093B1
:1039C000930620939206809398061092990610927F
:1039D0009B0610929A068AE295E090938306809364
:1039E00082069FEF90939E069093A2069093A00666
:1039F00090939F0684E08093A10680917E068C3090
:103A0000A0F491E0980F90937E0680937F0690E05B
:103A1000FC01EE0FFF1F8E0F9F1FFC01E65AF94FAE
:103A20008CED95E092838183089590937F060895AD
:103A3000991B79E004C0991F961708F0961B881F00
:103A40007A95C9F780950895AA1BBB1B51E107C061
:103A5000AA1FBB1FA617B70710F0A61BB70B881F1E
:103A6000991F5A95A9F780959095BC01CD010895AD
:103A7000EE0FFF1F0590F491E02D09940E94521D56
:103A80000C94331E0E942C1E58F00E94251E40F0FC
:103A900029F45F3F29F00C941C1E51110C94671EF1
:103AA0000C94221E0E94441E68F39923B1F35523FF
:103AB00091F3951B550BBB27AA2762177307840741
:103AC00038F09F5F5F4F220F331F441FAA1FA9F3D7
:103AD00035D00E2E3AF0E0E832D091505040E695C5
:103AE000001CCAF72BD0FE2F29D0660F771F881F26
:103AF000BB1F261737074807AB07B0E809F0BB0B19
:103B0000802DBF01FF2793585F4F3AF09E3F51052C
:103B100078F00C941C1E0C94671E5F3FE4F3983EF3
:103B2000D4F3869577956795B795F7959F5FC9F715
:103B3000880F911D9695879597F90895E1E0660F96
:103B4000771F881FBB1F621773078407BA0720F00F
:103B5000621B730B840BBA0BEE1F88F7E095089578
:103B60000E944C1E88F09F5798F0B92F9927B751A3
:103B7000B0F0E1F0660F771F881F991F1AF0BA9511
:103B8000C9F714C0B13091F00E94661EB1E00895EB
:103B90000C94661E672F782F8827B85F39F0B93FDD
:103BA000CCF3869577956795B395D9F73EF49095C4
:103BB0008095709561957F4F8F4F9F4F0895E89442
:103BC00009C097FB3EF490958095709561957F4F65
:103BD0008F4F9F4F9923A9F0F92F96E9BB27939513
:103BE000F695879577956795B795F111F8CFFAF423
:103BF000BB0F11F460FF1BC06F5F7F4F8F4F9F4F54
:103C000016C0882311F096E911C0772321F09EE8B1
:103C1000872F762F05C0662371F096E8862F70E017
:103C200060E02AF09A95660F771F881FDAF7880FF1
:103C30009695879597F9089597F99F6780E870E0C2
:103C400060E008959FEF80EC089500240A94161612
:103C5000170618060906089500240A94121613067A
:103C6000140605060895092E0394000C11F4882308
:103C700052F0BB0F40F4BF2B11F460FF04C06F5F24
:103C80007F4F8F4F9F4F089557FD9058440F551FFA
:103C900059F05F3F71F04795880F97FB991F61F0CE
:103CA0009F3F79F087950895121613061406551F45
:103CB000F2CF4695F1DF08C0161617061806991FB1
:103CC000F1CF86957105610508940895E894BB27A6
:103CD00066277727CB0197F908950E94801E0C94E0
:103CE000331E0E94251E38F00E942C1E20F09523C2
:103CF00011F00C941C1E0C94221E11240C94671EAF
:103D00000E94441E70F3959FC1F3950F50E0551F1C
:103D1000629FF001729FBB27F00DB11D639FAA2720
:103D2000F00DB11DAA1F649F6627B00DA11D661F6F
:103D3000829F2227B00DA11D621F739FB00DA11D90
:103D4000621F839FA00D611D221F749F3327A00D4A
:103D5000611D231F849F600D211D822F762F6A2FE6
:103D600011249F5750409AF0F1F088234AF0EE0F4B
:103D7000FF1FBB1F661F771F881F91505040A9F778
:103D80009E3F510580F00C941C1E0C94671E5F3FF3
:103D9000E4F3983ED4F3869577956795B795F795B4
:103DA000E7959F5FC1F7FE2B880F911D969587952C
:103DB00097F9089581E090E0F8940C94BB1FFB0103
:103DC000DC0101900D920020E1F708958F929F92FF
:103DD000AF92BF92CF92DF92EF92FF92CF93DF9399
:103DE000EC01688179818A819B816115710581056A
:103DF000910521F464E279ED8BE597E02DE133EF55
:103E000041E050E00E94581F49015A019B01AC015A
:103E1000A7EAB1E40E94771F6B017C01ACEEB4EF1E
:103E2000A50194010E94851FDC01CB018C0D9D1D15
:103E3000AE1DBF1DB7FF03C00197A109B04888831D
:103E40009983AA83BB83BC01CD019F77DF91CF917A
:103E5000FF90EF90DF90CF90BF90AF909F908F90AA
:103E600008950E94E61E089582E095E00E94E61EF5
:103E70000895609302057093030580930405909361
:103E800005050895F999FECF92BD81BDF89A99274D
:103E900080B50895262FF999FECF1FBA92BD81BD36
:103EA00020BD0FB6F894FA9AF99A0FBE01960895BC
:103EB000052E97FB1EF400940E946F1F57FD07D03C
:103EC0000E948A1F07FC03D04EF40C946F1F50957C
:103ED0004095309521953F4F4F4F5F4F08959095F6
:103EE0008095709561957F4F8F4F9F4F08950E94E9
:103EF000AC1FA59F900DB49F900DA49F800D911DA8
:103F000011240895B7FF0C94771F0E94771F821B1E
:103F1000930B0895A1E21A2EAA1BBB1BFD010DC035
:103F2000AA1FBB1FEE1FFF1FA217B307E407F50769
:103F300020F0A21BB30BE40BF50B661F771F881F45
:103F4000991F1A9469F760957095809590959B01DB
:103F5000AC01BD01CF010895A29FB001B39FC00184
:103F6000A39F700D811D1124911DB29F700D811DA5
:0A3F70001124911D0895F894FFCF6D
:103F7A000E01000000000000000000000000000028
:103F8A000000000000000000000000000000000027
:103F9A000000000000000000000000000000000017
:103FAA000000000000000000000000000000000007
:103FBA000080808000000000000000000000000077
:103FCA000000008080C0C000000000000000000067
:103FDA0000000000000000000000000000000000D7
:103FEA0000000000000000000000000000000000C7
:103FFA0000000000000000000000000000000000B7
:10400A0000000000000080C0E0F0F8FCF8E00000CA
:10401A000000000000000000000000000000008016
:10402A008080808000808000000000808080808006
:10403A0000FFFFFF00000000808080800000808079
:10404A00000080FFFF8080008080008080808000E8
:10405A0080800000000000808000008C8E840000B8
:10406A0080F8F8F88000000000000000000000005E
:10407A000000F0F0F0F0F0F0F0F0F0F0F0F0E0E036
:10408A00C08000E0FCFEFFFFFF7FFFFFFFFFFF0095
:10409A0000000000000000000000000000FEFFC752
:1040AA000101010183FFFF00007CFEC7010101013C
:1040BA0083FFFFFF0038FEC78301010183C7FFFFAB
:1040CA00000001FFFF010100FFFF070101010000DD
:1040DA007FFF80000000FFFF7F0000FFFFFF00005E
:1040EA0001FFFFFF010000000000000000000000C7
:1040FA000000030F3F7F7FFFFFFFFFFFFFFFE7C7C0
:10410A00C78F8F9FBFFFFFC3C0F0FFFFFFFFFFFCFA
:10411A00FCFCFCFCFCFCFCF8F8F0F0E0C00001033D
:10412A000303030301030300000000010303030365
:10413A00010103010000000103030303010103035A
:10414A000000000303000000030300000000000059
:10415A00000103030303030100000001030100003F
:10416A00000303010000000000000000000000003E
:10417A00000000000080C0E0F0F9FFFFFFFFFF3FF2
:10418A001F0F87C7F7FFFF1F1F3DFCF8F8F8F87CE1
:10419A007DFFFFFFFFFFFFFFFF7F3F0F070030306C
:1041AA000000000000000000000000000000000005
:1041BA00000000000000FEFEFC00000000000000FD
:1041CA00000000000000000000000000000000E005
:1041DA00C0000000000000000000000030300000B5
:1041EA0000000000000000000000000000000000C5
:1041FA00000000C0FEFFFFFFFFFFFFFFFFFF7F7F02
:10420A003F1F0F071F7FFFFFF8F8FFFFFFFFFFFEAB
:10421A00F8E0000000010000000000000000FEFEBF
:10422A00000000FCFEFC0C06060EFCF80000F0F88C
:10423A001C0E0606060CFFFFFF0000FEFE00000033
:10424A0000FCFEFC00183C7E66E6CE84000006FFF9
:10425A00FF0606FCFEFC0C0606060000FEFE000039
:10426A00C0F8FC4E4646464E7C7840183C76E6CE70
:10427A00CC800000000000000000000000000000E8
:10428A0000000000000001070F1F1F3F3F3F3F1FB4
:10429A000F030000000000000000000000000F0FE4
:1042AA000000000F0F0F000000000F0F00000307AF
:1042BA000E0C18180C060F0F0F0000010F0E0C1829
:1042CA000C0F070100040E0C180C0F070000000F5A
:1042DA000F00000F0F0F0000000000000F0F00007A
:1042EA000007070C0C181C0C060600040E0C180C10
:1042FA000F0700000000000000000000000000009E
:10430A0000000000000000000000000000000000A3
:10431A000000000000000000000000000000000093
:10432A000000000000000000000000000000000083
:10433A000000000000000000000000000000000073
:10434A000000000000000000000000000000000063
:10435A000000000000000000000000000000000053
:10436A000000000000000000000000000000000043
:10437A00000001000000000103070F1F3F7F0080BB
:10438A00C0E0F0F8FCFE00000000080DD80CD00CCC
:10439A00C10CB30CB20C00000000DE0E300C930608
:1043AA008410DD0337053510D30FB50F370D0D0A0D
:1043BA00002020202000426F7363616D204100427B
:1043CA006F7363616D204200466F78746563682F6E
:1043DA00444A492000466174536861726B20005256
:1043EA0061636562616E6420004558542D494E0030
:0843FA004456522D494E00000B
:00000001FF
